{
  "_format": "hh-sol-artifact-1",
  "contractName": "Dappcord",
  "sourceName": "contracts/Dappcord.sol",
  "abi": [
    {
      "inputs": [],
      "stateMutability": "nonpayable",
      "type": "constructor"
    },
    {
      "inputs": [
        {
          "internalType": "address",
          "name": "sender",
          "type": "address"
        },
        {
          "internalType": "uint256",
          "name": "tokenId",
          "type": "uint256"
        },
        {
          "internalType": "address",
          "name": "owner",
          "type": "address"
        }
      ],
      "name": "ERC721IncorrectOwner",
      "type": "error"
    },
    {
      "inputs": [
        {
          "internalType": "address",
          "name": "operator",
          "type": "address"
        },
        {
          "internalType": "uint256",
          "name": "tokenId",
          "type": "uint256"
        }
      ],
      "name": "ERC721InsufficientApproval",
      "type": "error"
    },
    {
      "inputs": [
        {
          "internalType": "address",
          "name": "approver",
          "type": "address"
        }
      ],
      "name": "ERC721InvalidApprover",
      "type": "error"
    },
    {
      "inputs": [
        {
          "internalType": "address",
          "name": "operator",
          "type": "address"
        }
      ],
      "name": "ERC721InvalidOperator",
      "type": "error"
    },
    {
      "inputs": [
        {
          "internalType": "address",
          "name": "owner",
          "type": "address"
        }
      ],
      "name": "ERC721InvalidOwner",
      "type": "error"
    },
    {
      "inputs": [
        {
          "internalType": "address",
          "name": "receiver",
          "type": "address"
        }
      ],
      "name": "ERC721InvalidReceiver",
      "type": "error"
    },
    {
      "inputs": [
        {
          "internalType": "address",
          "name": "sender",
          "type": "address"
        }
      ],
      "name": "ERC721InvalidSender",
      "type": "error"
    },
    {
      "inputs": [
        {
          "internalType": "uint256",
          "name": "tokenId",
          "type": "uint256"
        }
      ],
      "name": "ERC721NonexistentToken",
      "type": "error"
    },
    {
      "anonymous": false,
      "inputs": [
        {
          "indexed": true,
          "internalType": "address",
          "name": "owner",
          "type": "address"
        },
        {
          "indexed": true,
          "internalType": "address",
          "name": "approved",
          "type": "address"
        },
        {
          "indexed": true,
          "internalType": "uint256",
          "name": "tokenId",
          "type": "uint256"
        }
      ],
      "name": "Approval",
      "type": "event"
    },
    {
      "anonymous": false,
      "inputs": [
        {
          "indexed": true,
          "internalType": "address",
          "name": "owner",
          "type": "address"
        },
        {
          "indexed": true,
          "internalType": "address",
          "name": "operator",
          "type": "address"
        },
        {
          "indexed": false,
          "internalType": "bool",
          "name": "approved",
          "type": "bool"
        }
      ],
      "name": "ApprovalForAll",
      "type": "event"
    },
    {
      "anonymous": false,
      "inputs": [
        {
          "indexed": true,
          "internalType": "address",
          "name": "from",
          "type": "address"
        },
        {
          "indexed": true,
          "internalType": "address",
          "name": "to",
          "type": "address"
        },
        {
          "indexed": true,
          "internalType": "uint256",
          "name": "tokenId",
          "type": "uint256"
        }
      ],
      "name": "Transfer",
      "type": "event"
    },
    {
      "inputs": [
        {
          "internalType": "address",
          "name": "to",
          "type": "address"
        },
        {
          "internalType": "uint256",
          "name": "tokenId",
          "type": "uint256"
        }
      ],
      "name": "approve",
      "outputs": [],
      "stateMutability": "nonpayable",
      "type": "function"
    },
    {
      "inputs": [
        {
          "internalType": "address",
          "name": "owner",
          "type": "address"
        }
      ],
      "name": "balanceOf",
      "outputs": [
        {
          "internalType": "uint256",
          "name": "",
          "type": "uint256"
        }
      ],
      "stateMutability": "view",
      "type": "function"
    },
    {
      "inputs": [
        {
          "internalType": "uint256",
          "name": "",
          "type": "uint256"
        }
      ],
      "name": "channels",
      "outputs": [
        {
          "internalType": "uint256",
          "name": "id",
          "type": "uint256"
        },
        {
          "internalType": "string",
          "name": "name",
          "type": "string"
        },
        {
          "internalType": "uint256",
          "name": "cost",
          "type": "uint256"
        }
      ],
      "stateMutability": "view",
      "type": "function"
    },
    {
      "inputs": [
        {
          "internalType": "string",
          "name": "_name",
          "type": "string"
        },
        {
          "internalType": "uint256",
          "name": "_cost",
          "type": "uint256"
        }
      ],
      "name": "createChannel",
      "outputs": [],
      "stateMutability": "nonpayable",
      "type": "function"
    },
    {
      "inputs": [
        {
          "internalType": "uint256",
          "name": "tokenId",
          "type": "uint256"
        }
      ],
      "name": "getApproved",
      "outputs": [
        {
          "internalType": "address",
          "name": "",
          "type": "address"
        }
      ],
      "stateMutability": "view",
      "type": "function"
    },
    {
      "inputs": [
        {
          "internalType": "uint256",
          "name": "_id",
          "type": "uint256"
        }
      ],
      "name": "getChannel",
      "outputs": [
        {
          "components": [
            {
              "internalType": "uint256",
              "name": "id",
              "type": "uint256"
            },
            {
              "internalType": "string",
              "name": "name",
              "type": "string"
            },
            {
              "internalType": "uint256",
              "name": "cost",
              "type": "uint256"
            }
          ],
          "internalType": "struct Dappcord.Channel",
          "name": "",
          "type": "tuple"
        }
      ],
      "stateMutability": "view",
      "type": "function"
    },
    {
      "inputs": [
        {
          "internalType": "uint256",
          "name": "",
          "type": "uint256"
        },
        {
          "internalType": "address",
          "name": "",
          "type": "address"
        }
      ],
      "name": "hasJoined",
      "outputs": [
        {
          "internalType": "bool",
          "name": "",
          "type": "bool"
        }
      ],
      "stateMutability": "view",
      "type": "function"
    },
    {
      "inputs": [
        {
          "internalType": "address",
          "name": "owner",
          "type": "address"
        },
        {
          "internalType": "address",
          "name": "operator",
          "type": "address"
        }
      ],
      "name": "isApprovedForAll",
      "outputs": [
        {
          "internalType": "bool",
          "name": "",
          "type": "bool"
        }
      ],
      "stateMutability": "view",
      "type": "function"
    },
    {
      "inputs": [
        {
          "internalType": "uint256",
          "name": "_id",
          "type": "uint256"
        }
      ],
      "name": "mint",
      "outputs": [],
      "stateMutability": "payable",
      "type": "function"
    },
    {
      "inputs": [],
      "name": "name",
      "outputs": [
        {
          "internalType": "string",
          "name": "",
          "type": "string"
        }
      ],
      "stateMutability": "view",
      "type": "function"
    },
    {
      "inputs": [],
      "name": "owner",
      "outputs": [
        {
          "internalType": "address",
          "name": "",
          "type": "address"
        }
      ],
      "stateMutability": "view",
      "type": "function"
    },
    {
      "inputs": [
        {
          "internalType": "uint256",
          "name": "tokenId",
          "type": "uint256"
        }
      ],
      "name": "ownerOf",
      "outputs": [
        {
          "internalType": "address",
          "name": "",
          "type": "address"
        }
      ],
      "stateMutability": "view",
      "type": "function"
    },
    {
      "inputs": [
        {
          "internalType": "address",
          "name": "from",
          "type": "address"
        },
        {
          "internalType": "address",
          "name": "to",
          "type": "address"
        },
        {
          "internalType": "uint256",
          "name": "tokenId",
          "type": "uint256"
        }
      ],
      "name": "safeTransferFrom",
      "outputs": [],
      "stateMutability": "nonpayable",
      "type": "function"
    },
    {
      "inputs": [
        {
          "internalType": "address",
          "name": "from",
          "type": "address"
        },
        {
          "internalType": "address",
          "name": "to",
          "type": "address"
        },
        {
          "internalType": "uint256",
          "name": "tokenId",
          "type": "uint256"
        },
        {
          "internalType": "bytes",
          "name": "data",
          "type": "bytes"
        }
      ],
      "name": "safeTransferFrom",
      "outputs": [],
      "stateMutability": "nonpayable",
      "type": "function"
    },
    {
      "inputs": [
        {
          "internalType": "address",
          "name": "operator",
          "type": "address"
        },
        {
          "internalType": "bool",
          "name": "approved",
          "type": "bool"
        }
      ],
      "name": "setApprovalForAll",
      "outputs": [],
      "stateMutability": "nonpayable",
      "type": "function"
    },
    {
      "inputs": [
        {
          "internalType": "bytes4",
          "name": "interfaceId",
          "type": "bytes4"
        }
      ],
      "name": "supportsInterface",
      "outputs": [
        {
          "internalType": "bool",
          "name": "",
          "type": "bool"
        }
      ],
      "stateMutability": "view",
      "type": "function"
    },
    {
      "inputs": [],
      "name": "symbol",
      "outputs": [
        {
          "internalType": "string",
          "name": "",
          "type": "string"
        }
      ],
      "stateMutability": "view",
      "type": "function"
    },
    {
      "inputs": [
        {
          "internalType": "uint256",
          "name": "tokenId",
          "type": "uint256"
        }
      ],
      "name": "tokenURI",
      "outputs": [
        {
          "internalType": "string",
          "name": "",
          "type": "string"
        }
      ],
      "stateMutability": "view",
      "type": "function"
    },
    {
      "inputs": [],
      "name": "totalChannels",
      "outputs": [
        {
          "internalType": "uint256",
          "name": "",
          "type": "uint256"
        }
      ],
      "stateMutability": "view",
      "type": "function"
    },
    {
      "inputs": [],
      "name": "totalSupply",
      "outputs": [
        {
          "internalType": "uint256",
          "name": "",
          "type": "uint256"
        }
      ],
      "stateMutability": "view",
      "type": "function"
    },
    {
      "inputs": [
        {
          "internalType": "address",
          "name": "from",
          "type": "address"
        },
        {
          "internalType": "address",
          "name": "to",
          "type": "address"
        },
        {
          "internalType": "uint256",
          "name": "tokenId",
          "type": "uint256"
        }
      ],
      "name": "transferFrom",
      "outputs": [],
      "stateMutability": "nonpayable",
      "type": "function"
    },
    {
      "inputs": [],
      "name": "withdraw",
      "outputs": [],
      "stateMutability": "nonpayable",
      "type": "function"
    }
  ],
  "bytecode": "0x60806040523480156200001157600080fd5b506040518060400160405280600581526020017f546f6b656e0000000000000000000000000000000000000000000000000000008152506040518060400160405280600281526020017f546b00000000000000000000000000000000000000000000000000000000000081525081600090816200008f919062000365565b508060019081620000a1919062000365565b50505033600660006101000a81548173ffffffffffffffffffffffffffffffffffffffff021916908373ffffffffffffffffffffffffffffffffffffffff1602179055506200044c565b600081519050919050565b7f4e487b7100000000000000000000000000000000000000000000000000000000600052604160045260246000fd5b7f4e487b7100000000000000000000000000000000000000000000000000000000600052602260045260246000fd5b600060028204905060018216806200016d57607f821691505b60208210810362000183576200018262000125565b5b50919050565b60008190508160005260206000209050919050565b60006020601f8301049050919050565b600082821b905092915050565b600060088302620001ed7fffffffffffffffffffffffffffffffffffffffffffffffffffffffffffffffff82620001ae565b620001f98683620001ae565b95508019841693508086168417925050509392505050565b6000819050919050565b6000819050919050565b600062000246620002406200023a8462000211565b6200021b565b62000211565b9050919050565b6000819050919050565b620002628362000225565b6200027a62000271826200024d565b848454620001bb565b825550505050565b600090565b6200029162000282565b6200029e81848462000257565b505050565b5b81811015620002c657620002ba60008262000287565b600181019050620002a4565b5050565b601f8211156200031557620002df8162000189565b620002ea846200019e565b81016020851015620002fa578190505b6200031262000309856200019e565b830182620002a3565b50505b505050565b600082821c905092915050565b60006200033a600019846008026200031a565b1980831691505092915050565b600062000355838362000327565b9150826002028217905092915050565b6200037082620000eb565b67ffffffffffffffff8111156200038c576200038b620000f6565b5b62000398825462000154565b620003a5828285620002ca565b600060209050601f831160018114620003dd5760008415620003c8578287015190505b620003d4858262000347565b86555062000444565b601f198416620003ed8662000189565b60005b828110156200041757848901518255600182019150602085019450602081019050620003f0565b8683101562000437578489015162000433601f89168262000327565b8355505b6001600288020188555050505b505050505050565b612adc806200045c6000396000f3fe6080604052600436106101355760003560e01c806370a08231116100ab578063a14865cd1161006f578063a14865cd1461042d578063a22cb46514610456578063b88d4fde1461047f578063c87b56dd146104a8578063e5949b5d146104e5578063e985e9c51461052457610135565b806370a08231146103535780637734a9f6146103905780638da5cb5b146103bb57806395d89b41146103e6578063a0712d681461041157610135565b806318160ddd116100fd57806318160ddd1461024557806323b872dd146102705780633ccfd60b1461029957806342842e0e146102b05780636352211e146102d9578063681947191461031657610135565b806301ffc9a71461013a57806306fdde0314610177578063081812fc146101a2578063095ea7b3146101df57806310df54a014610208575b600080fd5b34801561014657600080fd5b50610161600480360381019061015c9190611da5565b610561565b60405161016e9190611ded565b60405180910390f35b34801561018357600080fd5b5061018c610643565b6040516101999190611e98565b60405180910390f35b3480156101ae57600080fd5b506101c960048036038101906101c49190611ef0565b6106d5565b6040516101d69190611f5e565b60405180910390f35b3480156101eb57600080fd5b5061020660048036038101906102019190611fa5565b6106f1565b005b34801561021457600080fd5b5061022f600480360381019061022a9190611ef0565b610707565b60405161023c919061208e565b60405180910390f35b34801561025157600080fd5b5061025a6107da565b60405161026791906120bf565b60405180910390f35b34801561027c57600080fd5b50610297600480360381019061029291906120da565b6107e0565b005b3480156102a557600080fd5b506102ae6108e2565b005b3480156102bc57600080fd5b506102d760048036038101906102d291906120da565b6109cd565b005b3480156102e557600080fd5b5061030060048036038101906102fb9190611ef0565b6109ed565b60405161030d9190611f5e565b60405180910390f35b34801561032257600080fd5b5061033d6004803603810190610338919061212d565b6109ff565b60405161034a9190611ded565b60405180910390f35b34801561035f57600080fd5b5061037a6004803603810190610375919061216d565b610a2e565b60405161038791906120bf565b60405180910390f35b34801561039c57600080fd5b506103a5610ae8565b6040516103b291906120bf565b60405180910390f35b3480156103c757600080fd5b506103d0610aee565b6040516103dd9190611f5e565b60405180910390f35b3480156103f257600080fd5b506103fb610b14565b6040516104089190611e98565b60405180910390f35b61042b60048036038101906104269190611ef0565b610ba6565b005b34801561043957600080fd5b50610454600480360381019061044f91906122cf565b610ce6565b005b34801561046257600080fd5b5061047d60048036038101906104789190612357565b610dbb565b005b34801561048b57600080fd5b506104a660048036038101906104a19190612438565b610dd1565b005b3480156104b457600080fd5b506104cf60048036038101906104ca9190611ef0565b610dee565b6040516104dc9190611e98565b60405180910390f35b3480156104f157600080fd5b5061050c60048036038101906105079190611ef0565b610e57565b60405161051b939291906124bb565b60405180910390f35b34801561053057600080fd5b5061054b600480360381019061054691906124f9565b610f09565b6040516105589190611ded565b60405180910390f35b60007f80ac58cd000000000000000000000000000000000000000000000000000000007bffffffffffffffffffffffffffffffffffffffffffffffffffffffff1916827bffffffffffffffffffffffffffffffffffffffffffffffffffffffff1916148061062c57507f5b5e139f000000000000000000000000000000000000000000000000000000007bffffffffffffffffffffffffffffffffffffffffffffffffffffffff1916827bffffffffffffffffffffffffffffffffffffffffffffffffffffffff1916145b8061063c575061063b82610f9d565b5b9050919050565b60606000805461065290612568565b80601f016020809104026020016040519081016040528092919081815260200182805461067e90612568565b80156106cb5780601f106106a0576101008083540402835291602001916106cb565b820191906000526020600020905b8154815290600101906020018083116106ae57829003601f168201915b5050505050905090565b60006106e082611007565b506106ea8261108f565b9050919050565b61070382826106fe6110cc565b6110d4565b5050565b61070f611d18565b600960008381526020019081526020016000206040518060600160405290816000820154815260200160018201805461074790612568565b80601f016020809104026020016040519081016040528092919081815260200182805461077390612568565b80156107c05780601f10610795576101008083540402835291602001916107c0565b820191906000526020600020905b8154815290600101906020018083116107a357829003601f168201915b505050505081526020016002820154815250509050919050565b60085481565b600073ffffffffffffffffffffffffffffffffffffffff168273ffffffffffffffffffffffffffffffffffffffff16036108525760006040517f64a0ae920000000000000000000000000000000000000000000000000000000081526004016108499190611f5e565b60405180910390fd5b600061086683836108616110cc565b6110e6565b90508373ffffffffffffffffffffffffffffffffffffffff168173ffffffffffffffffffffffffffffffffffffffff16146108dc578382826040517f64283d7b0000000000000000000000000000000000000000000000000000000081526004016108d393929190612599565b60405180910390fd5b50505050565b600660009054906101000a900473ffffffffffffffffffffffffffffffffffffffff1673ffffffffffffffffffffffffffffffffffffffff163373ffffffffffffffffffffffffffffffffffffffff161461093c57600080fd5b6000600660009054906101000a900473ffffffffffffffffffffffffffffffffffffffff1673ffffffffffffffffffffffffffffffffffffffff164760405161098490612601565b60006040518083038185875af1925050503d80600081146109c1576040519150601f19603f3d011682016040523d82523d6000602084013e6109c6565b606091505b5050905050565b6109e883838360405180602001604052806000815250610dd1565b505050565b60006109f882611007565b9050919050565b600a6020528160005260406000206020528060005260406000206000915091509054906101000a900460ff1681565b60008073ffffffffffffffffffffffffffffffffffffffff168273ffffffffffffffffffffffffffffffffffffffff1603610aa15760006040517f89c62b64000000000000000000000000000000000000000000000000000000008152600401610a989190611f5e565b60405180910390fd5b600360008373ffffffffffffffffffffffffffffffffffffffff1673ffffffffffffffffffffffffffffffffffffffff168152602001908152602001600020549050919050565b60075481565b600660009054906101000a900473ffffffffffffffffffffffffffffffffffffffff1681565b606060018054610b2390612568565b80601f0160208091040260200160405190810160405280929190818152602001828054610b4f90612568565b8015610b9c5780601f10610b7157610100808354040283529160200191610b9c565b820191906000526020600020905b815481529060010190602001808311610b7f57829003601f168201915b5050505050905090565b60008103610bb357600080fd5b600754811115610bc257600080fd5b6000600a600083815260200190815260200160002060003373ffffffffffffffffffffffffffffffffffffffff1673ffffffffffffffffffffffffffffffffffffffff16815260200190815260200160002060006101000a81548160ff0219169083151502179055610c3357600080fd5b6009600082815260200190815260200160002060020154341015610c5657600080fd5b6000600a600083815260200190815260200160002060003373ffffffffffffffffffffffffffffffffffffffff1673ffffffffffffffffffffffffffffffffffffffff16815260200190815260200160002060006101000a81548160ff02191690831515021790555060086000815480929190610cd290612645565b9190505550610ce333600854611300565b50565b600660009054906101000a900473ffffffffffffffffffffffffffffffffffffffff1673ffffffffffffffffffffffffffffffffffffffff163373ffffffffffffffffffffffffffffffffffffffff1614610d4057600080fd5b60076000815480929190610d5390612645565b91905055506040518060600160405280600754815260200183815260200182815250600960006007548152602001908152602001600020600082015181600001556020820151816001019081610da99190612839565b50604082015181600201559050505050565b610dcd610dc66110cc565b838361131e565b5050565b610ddc8484846107e0565b610de88484848461148d565b50505050565b6060610df982611007565b506000610e04611644565b90506000815111610e245760405180602001604052806000815250610e4f565b80610e2e8461165b565b604051602001610e3f929190612947565b6040516020818303038152906040525b915050919050565b6009602052806000526040600020600091509050806000015490806001018054610e8090612568565b80601f0160208091040260200160405190810160405280929190818152602001828054610eac90612568565b8015610ef95780601f10610ece57610100808354040283529160200191610ef9565b820191906000526020600020905b815481529060010190602001808311610edc57829003601f168201915b5050505050908060020154905083565b6000600560008473ffffffffffffffffffffffffffffffffffffffff1673ffffffffffffffffffffffffffffffffffffffff16815260200190815260200160002060008373ffffffffffffffffffffffffffffffffffffffff1673ffffffffffffffffffffffffffffffffffffffff16815260200190815260200160002060009054906101000a900460ff16905092915050565b60007f01ffc9a7000000000000000000000000000000000000000000000000000000007bffffffffffffffffffffffffffffffffffffffffffffffffffffffff1916827bffffffffffffffffffffffffffffffffffffffffffffffffffffffff1916149050919050565b60008061101383611729565b9050600073ffffffffffffffffffffffffffffffffffffffff168173ffffffffffffffffffffffffffffffffffffffff160361108657826040517f7e27328900000000000000000000000000000000000000000000000000000000815260040161107d91906120bf565b60405180910390fd5b80915050919050565b60006004600083815260200190815260200160002060009054906101000a900473ffffffffffffffffffffffffffffffffffffffff169050919050565b600033905090565b6110e18383836001611766565b505050565b6000806110f284611729565b9050600073ffffffffffffffffffffffffffffffffffffffff168373ffffffffffffffffffffffffffffffffffffffff16146111345761113381848661192b565b5b600073ffffffffffffffffffffffffffffffffffffffff168173ffffffffffffffffffffffffffffffffffffffff16146111c557611176600085600080611766565b6001600360008373ffffffffffffffffffffffffffffffffffffffff1673ffffffffffffffffffffffffffffffffffffffff168152602001908152602001600020600082825403925050819055505b600073ffffffffffffffffffffffffffffffffffffffff168573ffffffffffffffffffffffffffffffffffffffff1614611248576001600360008773ffffffffffffffffffffffffffffffffffffffff1673ffffffffffffffffffffffffffffffffffffffff168152602001908152602001600020600082825401925050819055505b846002600086815260200190815260200160002060006101000a81548173ffffffffffffffffffffffffffffffffffffffff021916908373ffffffffffffffffffffffffffffffffffffffff160217905550838573ffffffffffffffffffffffffffffffffffffffff168273ffffffffffffffffffffffffffffffffffffffff167fddf252ad1be2c89b69c2b068fc378daa952ba7f163c4a11628f55a4df523b3ef60405160405180910390a4809150509392505050565b61131a8282604051806020016040528060008152506119ef565b5050565b600073ffffffffffffffffffffffffffffffffffffffff168273ffffffffffffffffffffffffffffffffffffffff160361138f57816040517f5b08ba180000000000000000000000000000000000000000000000000000000081526004016113869190611f5e565b60405180910390fd5b80600560008573ffffffffffffffffffffffffffffffffffffffff1673ffffffffffffffffffffffffffffffffffffffff16815260200190815260200160002060008473ffffffffffffffffffffffffffffffffffffffff1673ffffffffffffffffffffffffffffffffffffffff16815260200190815260200160002060006101000a81548160ff0219169083151502179055508173ffffffffffffffffffffffffffffffffffffffff168373ffffffffffffffffffffffffffffffffffffffff167f17307eab39ab6107e8899845ad3d59bd9653f200f220920489ca2b5937696c31836040516114809190611ded565b60405180910390a3505050565b60008373ffffffffffffffffffffffffffffffffffffffff163b111561163e578273ffffffffffffffffffffffffffffffffffffffff1663150b7a026114d16110cc565b8685856040518563ffffffff1660e01b81526004016114f394939291906129c0565b6020604051808303816000875af192505050801561152f57506040513d601f19601f8201168201806040525081019061152c9190612a21565b60015b6115b3573d806000811461155f576040519150601f19603f3d011682016040523d82523d6000602084013e611564565b606091505b5060008151036115ab57836040517f64a0ae920000000000000000000000000000000000000000000000000000000081526004016115a29190611f5e565b60405180910390fd5b805181602001fd5b63150b7a0260e01b7bffffffffffffffffffffffffffffffffffffffffffffffffffffffff1916817bffffffffffffffffffffffffffffffffffffffffffffffffffffffff19161461163c57836040517f64a0ae920000000000000000000000000000000000000000000000000000000081526004016116339190611f5e565b60405180910390fd5b505b50505050565b606060405180602001604052806000815250905090565b60606000600161166a84611a0b565b01905060008167ffffffffffffffff811115611689576116886121a4565b5b6040519080825280601f01601f1916602001820160405280156116bb5781602001600182028036833780820191505090505b509050600082602001820190505b60011561171e578080600190039150507f3031323334353637383961626364656600000000000000000000000000000000600a86061a8153600a858161171257611711612a4e565b5b049450600085036116c9575b819350505050919050565b60006002600083815260200190815260200160002060009054906101000a900473ffffffffffffffffffffffffffffffffffffffff169050919050565b808061179f5750600073ffffffffffffffffffffffffffffffffffffffff168273ffffffffffffffffffffffffffffffffffffffff1614155b156118d35760006117af84611007565b9050600073ffffffffffffffffffffffffffffffffffffffff168373ffffffffffffffffffffffffffffffffffffffff161415801561181a57508273ffffffffffffffffffffffffffffffffffffffff168173ffffffffffffffffffffffffffffffffffffffff1614155b801561182d575061182b8184610f09565b155b1561186f57826040517fa9fbf51f0000000000000000000000000000000000000000000000000000000081526004016118669190611f5e565b60405180910390fd5b81156118d157838573ffffffffffffffffffffffffffffffffffffffff168273ffffffffffffffffffffffffffffffffffffffff167f8c5be1e5ebec7d5bd14f71427d1e84f3dd0314c0f7b2291e5b200ac8c7c3b92560405160405180910390a45b505b836004600085815260200190815260200160002060006101000a81548173ffffffffffffffffffffffffffffffffffffffff021916908373ffffffffffffffffffffffffffffffffffffffff16021790555050505050565b611936838383611b5e565b6119ea57600073ffffffffffffffffffffffffffffffffffffffff168373ffffffffffffffffffffffffffffffffffffffff16036119ab57806040517f7e2732890000000000000000000000000000000000000000000000000000000081526004016119a291906120bf565b60405180910390fd5b81816040517f177e802f0000000000000000000000000000000000000000000000000000000081526004016119e1929190612a7d565b60405180910390fd5b505050565b6119f98383611c1f565b611a06600084848461148d565b505050565b600080600090507a184f03e93ff9f4daa797ed6e38ed64bf6a1f0100000000000000008310611a69577a184f03e93ff9f4daa797ed6e38ed64bf6a1f0100000000000000008381611a5f57611a5e612a4e565b5b0492506040810190505b6d04ee2d6d415b85acef81000000008310611aa6576d04ee2d6d415b85acef81000000008381611a9c57611a9b612a4e565b5b0492506020810190505b662386f26fc100008310611ad557662386f26fc100008381611acb57611aca612a4e565b5b0492506010810190505b6305f5e1008310611afe576305f5e1008381611af457611af3612a4e565b5b0492506008810190505b6127108310611b23576127108381611b1957611b18612a4e565b5b0492506004810190505b60648310611b465760648381611b3c57611b3b612a4e565b5b0492506002810190505b600a8310611b55576001810190505b80915050919050565b60008073ffffffffffffffffffffffffffffffffffffffff168373ffffffffffffffffffffffffffffffffffffffff1614158015611c1657508273ffffffffffffffffffffffffffffffffffffffff168473ffffffffffffffffffffffffffffffffffffffff161480611bd75750611bd68484610f09565b5b80611c1557508273ffffffffffffffffffffffffffffffffffffffff16611bfd8361108f565b73ffffffffffffffffffffffffffffffffffffffff16145b5b90509392505050565b600073ffffffffffffffffffffffffffffffffffffffff168273ffffffffffffffffffffffffffffffffffffffff1603611c915760006040517f64a0ae92000000000000000000000000000000000000000000000000000000008152600401611c889190611f5e565b60405180910390fd5b6000611c9f838360006110e6565b9050600073ffffffffffffffffffffffffffffffffffffffff168173ffffffffffffffffffffffffffffffffffffffff1614611d135760006040517f73c6ac6e000000000000000000000000000000000000000000000000000000008152600401611d0a9190611f5e565b60405180910390fd5b505050565b60405180606001604052806000815260200160608152602001600081525090565b6000604051905090565b600080fd5b600080fd5b60007fffffffff0000000000000000000000000000000000000000000000000000000082169050919050565b611d8281611d4d565b8114611d8d57600080fd5b50565b600081359050611d9f81611d79565b92915050565b600060208284031215611dbb57611dba611d43565b5b6000611dc984828501611d90565b91505092915050565b60008115159050919050565b611de781611dd2565b82525050565b6000602082019050611e026000830184611dde565b92915050565b600081519050919050565b600082825260208201905092915050565b60005b83811015611e42578082015181840152602081019050611e27565b60008484015250505050565b6000601f19601f8301169050919050565b6000611e6a82611e08565b611e748185611e13565b9350611e84818560208601611e24565b611e8d81611e4e565b840191505092915050565b60006020820190508181036000830152611eb28184611e5f565b905092915050565b6000819050919050565b611ecd81611eba565b8114611ed857600080fd5b50565b600081359050611eea81611ec4565b92915050565b600060208284031215611f0657611f05611d43565b5b6000611f1484828501611edb565b91505092915050565b600073ffffffffffffffffffffffffffffffffffffffff82169050919050565b6000611f4882611f1d565b9050919050565b611f5881611f3d565b82525050565b6000602082019050611f736000830184611f4f565b92915050565b611f8281611f3d565b8114611f8d57600080fd5b50565b600081359050611f9f81611f79565b92915050565b60008060408385031215611fbc57611fbb611d43565b5b6000611fca85828601611f90565b9250506020611fdb85828601611edb565b9150509250929050565b611fee81611eba565b82525050565b600082825260208201905092915050565b600061201082611e08565b61201a8185611ff4565b935061202a818560208601611e24565b61203381611e4e565b840191505092915050565b60006060830160008301516120566000860182611fe5565b506020830151848203602086015261206e8282612005565b91505060408301516120836040860182611fe5565b508091505092915050565b600060208201905081810360008301526120a8818461203e565b905092915050565b6120b981611eba565b82525050565b60006020820190506120d460008301846120b0565b92915050565b6000806000606084860312156120f3576120f2611d43565b5b600061210186828701611f90565b935050602061211286828701611f90565b925050604061212386828701611edb565b9150509250925092565b6000806040838503121561214457612143611d43565b5b600061215285828601611edb565b925050602061216385828601611f90565b9150509250929050565b60006020828403121561218357612182611d43565b5b600061219184828501611f90565b91505092915050565b600080fd5b600080fd5b7f4e487b7100000000000000000000000000000000000000000000000000000000600052604160045260246000fd5b6121dc82611e4e565b810181811067ffffffffffffffff821117156121fb576121fa6121a4565b5b80604052505050565b600061220e611d39565b905061221a82826121d3565b919050565b600067ffffffffffffffff82111561223a576122396121a4565b5b61224382611e4e565b9050602081019050919050565b82818337600083830152505050565b600061227261226d8461221f565b612204565b90508281526020810184848401111561228e5761228d61219f565b5b612299848285612250565b509392505050565b600082601f8301126122b6576122b561219a565b5b81356122c684826020860161225f565b91505092915050565b600080604083850312156122e6576122e5611d43565b5b600083013567ffffffffffffffff81111561230457612303611d48565b5b612310858286016122a1565b925050602061232185828601611edb565b9150509250929050565b61233481611dd2565b811461233f57600080fd5b50565b6000813590506123518161232b565b92915050565b6000806040838503121561236e5761236d611d43565b5b600061237c85828601611f90565b925050602061238d85828601612342565b9150509250929050565b600067ffffffffffffffff8211156123b2576123b16121a4565b5b6123bb82611e4e565b9050602081019050919050565b60006123db6123d684612397565b612204565b9050828152602081018484840111156123f7576123f661219f565b5b612402848285612250565b509392505050565b600082601f83011261241f5761241e61219a565b5b813561242f8482602086016123c8565b91505092915050565b6000806000806080858703121561245257612451611d43565b5b600061246087828801611f90565b945050602061247187828801611f90565b935050604061248287828801611edb565b925050606085013567ffffffffffffffff8111156124a3576124a2611d48565b5b6124af8782880161240a565b91505092959194509250565b60006060820190506124d060008301866120b0565b81810360208301526124e28185611e5f565b90506124f160408301846120b0565b949350505050565b600080604083850312156125105761250f611d43565b5b600061251e85828601611f90565b925050602061252f85828601611f90565b9150509250929050565b7f4e487b7100000000000000000000000000000000000000000000000000000000600052602260045260246000fd5b6000600282049050600182168061258057607f821691505b60208210810361259357612592612539565b5b50919050565b60006060820190506125ae6000830186611f4f565b6125bb60208301856120b0565b6125c86040830184611f4f565b949350505050565b600081905092915050565b50565b60006125eb6000836125d0565b91506125f6826125db565b600082019050919050565b600061260c826125de565b9150819050919050565b7f4e487b7100000000000000000000000000000000000000000000000000000000600052601160045260246000fd5b600061265082611eba565b91507fffffffffffffffffffffffffffffffffffffffffffffffffffffffffffffffff820361268257612681612616565b5b600182019050919050565b60008190508160005260206000209050919050565b60006020601f8301049050919050565b600082821b905092915050565b6000600883026126ef7fffffffffffffffffffffffffffffffffffffffffffffffffffffffffffffffff826126b2565b6126f986836126b2565b95508019841693508086168417925050509392505050565b6000819050919050565b600061273661273161272c84611eba565b612711565b611eba565b9050919050565b6000819050919050565b6127508361271b565b61276461275c8261273d565b8484546126bf565b825550505050565b600090565b61277961276c565b612784818484612747565b505050565b5b818110156127a85761279d600082612771565b60018101905061278a565b5050565b601f8211156127ed576127be8161268d565b6127c7846126a2565b810160208510156127d6578190505b6127ea6127e2856126a2565b830182612789565b50505b505050565b600082821c905092915050565b6000612810600019846008026127f2565b1980831691505092915050565b600061282983836127ff565b9150826002028217905092915050565b61284282611e08565b67ffffffffffffffff81111561285b5761285a6121a4565b5b6128658254612568565b6128708282856127ac565b600060209050601f8311600181146128a35760008415612891578287015190505b61289b858261281d565b865550612903565b601f1984166128b18661268d565b60005b828110156128d9578489015182556001820191506020850194506020810190506128b4565b868310156128f657848901516128f2601f8916826127ff565b8355505b6001600288020188555050505b505050505050565b600081905092915050565b600061292182611e08565b61292b818561290b565b935061293b818560208601611e24565b80840191505092915050565b60006129538285612916565b915061295f8284612916565b91508190509392505050565b600081519050919050565b600082825260208201905092915050565b60006129928261296b565b61299c8185612976565b93506129ac818560208601611e24565b6129b581611e4e565b840191505092915050565b60006080820190506129d56000830187611f4f565b6129e26020830186611f4f565b6129ef60408301856120b0565b8181036060830152612a018184612987565b905095945050505050565b600081519050612a1b81611d79565b92915050565b600060208284031215612a3757612a36611d43565b5b6000612a4584828501612a0c565b91505092915050565b7f4e487b7100000000000000000000000000000000000000000000000000000000600052601260045260246000fd5b6000604082019050612a926000830185611f4f565b612a9f60208301846120b0565b939250505056fea2646970667358221220b69f2ac63567d9fccee44cd7502880b504d478b5d3042da1d1eb0edf9731a46464736f6c63430008140033",
  "linkReferences": {},
  "deployedLinkReferences": {}
}